{
  "contractName": "hospital",
  "abi": [
    {
      "inputs": [],
      "payable": false,
      "stateMutability": "nonpayable",
      "type": "constructor"
    },
    {
      "anonymous": false,
      "inputs": [
        {
          "indexed": true,
          "name": "account",
          "type": "address"
        }
      ],
      "name": "hospitalAdded",
      "type": "event"
    },
    {
      "anonymous": false,
      "inputs": [
        {
          "indexed": true,
          "name": "account",
          "type": "address"
        }
      ],
      "name": "hospitalRemoved",
      "type": "event"
    },
    {
      "constant": true,
      "inputs": [
        {
          "name": "account",
          "type": "address"
        }
      ],
      "name": "ishospital",
      "outputs": [
        {
          "name": "",
          "type": "bool"
        }
      ],
      "payable": false,
      "stateMutability": "view",
      "type": "function"
    },
    {
      "constant": false,
      "inputs": [
        {
          "name": "account",
          "type": "address"
        }
      ],
      "name": "addhospital",
      "outputs": [],
      "payable": false,
      "stateMutability": "nonpayable",
      "type": "function"
    },
    {
      "constant": false,
      "inputs": [],
      "name": "renouncehospital",
      "outputs": [],
      "payable": false,
      "stateMutability": "nonpayable",
      "type": "function"
    }
  ],
  "bytecode": "0x608060405234801561001057600080fd5b506100203361002560201b60201c565b6100fb565b61003d81600061007460201b6101fe1790919060201c565b6040516001600160a01b038216907ffe59a3ca7881ec6a1770b939089e1bbb0562f8373c5603f2c4c72aa8ba2d9ecb90600090a250565b6001600160a01b03811661008757600080fd5b61009782826100c660201b60201c565b156100a157600080fd5b6001600160a01b0316600090815260209190915260409020805460ff19166001179055565b60006001600160a01b0382166100db57600080fd5b506001600160a01b03166000908152602091909152604090205460ff1690565b6102768061010a6000396000f3fe608060405234801561001057600080fd5b50600436106100415760003560e01c806305d685c1146100465780632d4a0daa146100505780634a22d7dc14610076575b600080fd5b61004e6100b0565b005b61004e6004803603602081101561006657600080fd5b50356001600160a01b03166100bb565b61009c6004803603602081101561008c57600080fd5b50356001600160a01b03166100d9565b604080519115158252519081900360200190f35b6100b9336100f1565b565b6100c4336100d9565b6100cd57600080fd5b6100d681610139565b50565b60006100eb818363ffffffff61018116565b92915050565b61010260008263ffffffff6101b616565b6040516001600160a01b038216907fd6057c66ea7075caf4b3aaad763f1561978510acd58b9df4fee5ca0ff67eef2290600090a250565b61014a60008263ffffffff6101fe16565b6040516001600160a01b038216907ffe59a3ca7881ec6a1770b939089e1bbb0562f8373c5603f2c4c72aa8ba2d9ecb90600090a250565b60006001600160a01b03821661019657600080fd5b506001600160a01b03166000908152602091909152604090205460ff1690565b6001600160a01b0381166101c957600080fd5b6101d38282610181565b6101dc57600080fd5b6001600160a01b0316600090815260209190915260409020805460ff19169055565b6001600160a01b03811661021157600080fd5b61021b8282610181565b1561022557600080fd5b6001600160a01b0316600090815260209190915260409020805460ff1916600117905556fea165627a7a72305820e078ca40eb1783d51501ec8b361395f8d317351ffdc9a8ac135ba1a344e21c010029",
  "source": "\n\n// Hospital: Can approved to policy with defult consent for procedure and track authenticity.\npragma solidity ^0.5.0;\n\n// Import the library 'Roles'\nimport \"./Roles.sol\";\n\n// Define a contract 'hospital' to manage this role - add, remove, check\ncontract hospital{\n  using Roles for Roles.Role;\n\n  // Define 2 events, one for Adding, and other for Removing\n  event hospitalAdded(address indexed account);\n  event hospitalRemoved(address indexed account);\n\n  // Define a struct 'hospitals' by inheriting from 'Roles' library, struct Role\n  Roles.Role private hospitals;\n\n  // In the constructor make the address that deploys this contract the 1st hospital\n  constructor() public {\n    _addhospital(msg.sender);\n  }\n\n  // Define a modifier that checks to see if msg.sender has the appropriate role\n  modifier onlyhospital() {\n    require(ishospital(msg.sender));\n    _;\n  }\n\n  // Define a function 'ishospital' to check this role\n  function ishospital(address account) public view returns (bool) {\n    return hospitals.has(account);\n  }\n\n  // Define a function 'addhospital' that adds this role\n  function addhospital(address account) public onlyhospital {\n    _addhospital(account);\n  }\n\n  // Define a function 'renouncehospital' to renounce this role\n  function renouncehospital() public {\n    _removehospital(msg.sender);\n  }\n\n  // Define an internal function '_addhospital' to add this role, called by 'addhospital'\n  function _addhospital(address account) internal {\n    hospitals.add(account);\n    emit hospitalAdded(account);\n  }\n\n  // Define an internal function '_removehospital' to remove this role, called by 'removehospital'\n  function _removehospital(address account) internal {\n    hospitals.remove(account);\n    emit hospitalRemoved(account);\n  }\n}\n\n\n\n\n\n",
  "sourcePath": "/Users/masarah/code/wdi/project/DApp-supply-chain-solution/contracts/accesscontrol/Hospital.sol",
  "compiler": {
    "name": "solc",
    "version": "0.5.8+commit.23d335f2.Emscripten.clang"
  },
  "schemaVersion": "3.0.10",
  "updatedAt": "2019-08-08T16:30:39.427Z",
  "devdoc": {
    "methods": {}
  },
  "userdoc": {
    "methods": {}
  }
}