{
  "contractName": "Patient",
  "abi": [
    {
      "inputs": [],
      "payable": false,
      "stateMutability": "nonpayable",
      "type": "constructor"
    },
    {
      "anonymous": false,
      "inputs": [
        {
          "indexed": true,
          "name": "account",
          "type": "address"
        }
      ],
      "name": "PatientAdded",
      "type": "event"
    },
    {
      "anonymous": false,
      "inputs": [
        {
          "indexed": true,
          "name": "account",
          "type": "address"
        }
      ],
      "name": "PatientRemoved",
      "type": "event"
    },
    {
      "constant": true,
      "inputs": [
        {
          "name": "account",
          "type": "address"
        }
      ],
      "name": "isPatient",
      "outputs": [
        {
          "name": "",
          "type": "bool"
        }
      ],
      "payable": false,
      "stateMutability": "view",
      "type": "function"
    },
    {
      "constant": false,
      "inputs": [
        {
          "name": "account",
          "type": "address"
        }
      ],
      "name": "addPatient",
      "outputs": [],
      "payable": false,
      "stateMutability": "nonpayable",
      "type": "function"
    },
    {
      "constant": false,
      "inputs": [],
      "name": "renouncePatient",
      "outputs": [],
      "payable": false,
      "stateMutability": "nonpayable",
      "type": "function"
    }
  ],
  "bytecode": "0x608060405234801561001057600080fd5b506100203361002560201b60201c565b6100fb565b61003d81600061007460201b6101b61790919060201c565b6040516001600160a01b038216907fa58cff07db0adda3ab7a40bd2f18ab57210bf38391a52ffd2e8eee6b8bdec71a90600090a250565b6001600160a01b03811661008757600080fd5b61009782826100c660201b60201c565b156100a157600080fd5b6001600160a01b0316600090815260209190915260409020805460ff19166001179055565b60006001600160a01b0382166100db57600080fd5b506001600160a01b03166000908152602091909152604090205460ff1690565b6102768061010a6000396000f3fe608060405234801561001057600080fd5b50600436106100415760003560e01c80636d263ceb1461004657806381a07c361461006e5780638f9c79ed14610076575b600080fd5b61006c6004803603602081101561005c57600080fd5b50356001600160a01b03166100b0565b005b61006c6100ce565b61009c6004803603602081101561008c57600080fd5b50356001600160a01b03166100d9565b604080519115158252519081900360200190f35b6100b9336100d9565b6100c257600080fd5b6100cb816100f1565b50565b6100d733610139565b565b60006100eb818363ffffffff61018116565b92915050565b61010260008263ffffffff6101b616565b6040516001600160a01b038216907fa58cff07db0adda3ab7a40bd2f18ab57210bf38391a52ffd2e8eee6b8bdec71a90600090a250565b61014a60008263ffffffff61020216565b6040516001600160a01b038216907f053a4badf166f01c4b02f6bcb71d2d67734470d0866282e291e73001aa25c76990600090a250565b60006001600160a01b03821661019657600080fd5b506001600160a01b03166000908152602091909152604090205460ff1690565b6001600160a01b0381166101c957600080fd5b6101d38282610181565b156101dd57600080fd5b6001600160a01b0316600090815260209190915260409020805460ff19166001179055565b6001600160a01b03811661021557600080fd5b61021f8282610181565b61022857600080fd5b6001600160a01b0316600090815260209190915260409020805460ff1916905556fea165627a7a723058208ab69fd3e529bab4a7352ac11b8908b7225eb31390c850d0ac8f9bccb9e91f770029",
  "source": "// Patient: Can sign consent for procedure and track authenticity.\npragma solidity ^0.5.0;\n\n// Import the library 'Roles'\nimport \"./Roles.sol\";\n\n// Define a contract 'Patient' to manage this role - add, remove, check\ncontract Patient{\n  using Roles for Roles.Role;\n\n  // Define 2 events, one for Adding, and other for Removing\n  event PatientAdded(address indexed account);\n  event PatientRemoved(address indexed account);\n\n  // Define a struct 'Patients' by inheriting from 'Roles' library, struct Role\n  Roles.Role private Patients;\n\n  // In the constructor make the address that deploys this contract the 1st Patient\n  constructor() public {\n    _addPatient(msg.sender);\n  }\n\n  // Define a modifier that checks to see if msg.sender has the appropriate role\n  modifier onlyPatient() {\n    require(isPatient(msg.sender));\n    _;\n  }\n\n  // Define a function 'isPatient' to check this role\n  function isPatient(address account) public view returns (bool) {\n    return Patients.has(account);\n  }\n\n  // Define a function 'addPatient' that adds this role\n  function addPatient(address account) public onlyPatient {\n    _addPatient(account);\n  }\n\n  // Define a function 'renouncePatient' to renounce this role\n  function renouncePatient() public {\n    _removePatient(msg.sender);\n  }\n\n  // Define an internal function '_addPatient' to add this role, called by 'addPatient'\n  function _addPatient(address account) internal {\n    Patients.add(account);\n    emit PatientAdded(account);\n  }\n\n  // Define an internal function '_removePatient' to remove this role, called by 'removePatient'\n  function _removePatient(address account) internal {\n    Patients.remove(account);\n    emit PatientRemoved(account);\n  }\n}",
  "sourcePath": "/Users/masarah/code/wdi/project/DApp-supply-chain-solution/contracts/accesscontrol/Patient.sol",
  "compiler": {
    "name": "solc",
    "version": "0.5.8+commit.23d335f2.Emscripten.clang"
  },
  "schemaVersion": "3.0.10",
  "updatedAt": "2019-08-08T16:30:39.431Z",
  "devdoc": {
    "methods": {}
  },
  "userdoc": {
    "methods": {}
  }
}