{
  "contractName": "Practitioner",
  "abi": [
    {
      "inputs": [],
      "payable": false,
      "stateMutability": "nonpayable",
      "type": "constructor"
    },
    {
      "anonymous": false,
      "inputs": [
        {
          "indexed": true,
          "name": "account",
          "type": "address"
        }
      ],
      "name": "PractitionerAdded",
      "type": "event"
    },
    {
      "anonymous": false,
      "inputs": [
        {
          "indexed": true,
          "name": "account",
          "type": "address"
        }
      ],
      "name": "PractitionerRemoved",
      "type": "event"
    },
    {
      "constant": true,
      "inputs": [
        {
          "name": "account",
          "type": "address"
        }
      ],
      "name": "isPractitioner",
      "outputs": [
        {
          "name": "",
          "type": "bool"
        }
      ],
      "payable": false,
      "stateMutability": "view",
      "type": "function"
    },
    {
      "constant": false,
      "inputs": [
        {
          "name": "account",
          "type": "address"
        }
      ],
      "name": "addPractitioner",
      "outputs": [],
      "payable": false,
      "stateMutability": "nonpayable",
      "type": "function"
    },
    {
      "constant": false,
      "inputs": [],
      "name": "renouncePractitioner",
      "outputs": [],
      "payable": false,
      "stateMutability": "nonpayable",
      "type": "function"
    }
  ],
  "bytecode": "0x608060405234801561001057600080fd5b506100203361002560201b60201c565b6100fb565b61003d81600061007460201b6101b61790919060201c565b6040516001600160a01b038216907ff109775663ddef54e908af2fbdac130a0fb0e1c0f8a8154d1774a4fb9d2a963f90600090a250565b6001600160a01b03811661008757600080fd5b61009782826100c660201b60201c565b156100a157600080fd5b6001600160a01b0316600090815260209190915260409020805460ff19166001179055565b60006001600160a01b0382166100db57600080fd5b506001600160a01b03166000908152602091909152604090205460ff1690565b6102768061010a6000396000f3fe608060405234801561001057600080fd5b50600436106100415760003560e01c806360f776c51461004657806389f5ffc71461006e578063ac548275146100a8575b600080fd5b61006c6004803603602081101561005c57600080fd5b50356001600160a01b03166100b0565b005b6100946004803603602081101561008457600080fd5b50356001600160a01b03166100ce565b604080519115158252519081900360200190f35b61006c6100e6565b6100b9336100ce565b6100c257600080fd5b6100cb816100f1565b50565b60006100e0818363ffffffff61013916565b92915050565b6100ef3361016e565b565b61010260008263ffffffff6101b616565b6040516001600160a01b038216907ff109775663ddef54e908af2fbdac130a0fb0e1c0f8a8154d1774a4fb9d2a963f90600090a250565b60006001600160a01b03821661014e57600080fd5b506001600160a01b03166000908152602091909152604090205460ff1690565b61017f60008263ffffffff61020216565b6040516001600160a01b038216907f3e70a8e40d2145f0aec6367780c730e7efb3d857d593222df6dcea20a722446a90600090a250565b6001600160a01b0381166101c957600080fd5b6101d38282610139565b156101dd57600080fd5b6001600160a01b0316600090815260209190915260409020805460ff19166001179055565b6001600160a01b03811661021557600080fd5b61021f8282610139565b61022857600080fd5b6001600160a01b0316600090815260209190915260409020805460ff1916905556fea165627a7a723058201b58cad763d1ba933daaffdb3dfd6f71854630803875bfbf15a1a13dc6bc9abf0029",
  "source": "\n\n// Practitioner: Can approved to policy with defult consent for procedure and track authenticity.\npragma solidity ^0.5.0;\n\n// Import the library 'Roles'\nimport \"./Roles.sol\";\n\n// Define a contract 'PractitionerRole' to manage this role - add, remove, check\ncontract Practitioner {\n\n    using Roles for Roles.Role;\n\n    // Define 2 events, one for Adding, and other for Removing\n    event PractitionerAdded(address indexed account);\n    event PractitionerRemoved(address indexed account);\n\n    // Define a struct 'Practitioners' by inheriting from 'Roles' library, struct Role\n    Roles.Role private Practitioners;\n\n    // In the constructor make the address that deploys this contract the 1st Practitioner\n    constructor() public {\n        _addPractitioner(msg.sender);\n    }\n\n    // Define a modifier that checks to see if msg.sender has the appropriate role\n    modifier onlyPractitioner() {\n        require(isPractitioner(msg.sender));\n        _;\n    }\n\n    // Define a function 'isPractitioner' to check this role\n    function isPractitioner(address account) public view returns (bool) {\n        return Practitioners.has(account);\n    }\n\n    // Define a function 'addPractitioner' that adds this role\n    function addPractitioner(address account) public onlyPractitioner {\n        _addPractitioner(account);\n    }\n\n    // Define a function 'renouncePractitioner' to renounce this role\n    function renouncePractitioner() public {\n        _removePractitioner(msg.sender);\n    }\n\n    // Define an internal function '_addPractitioner' to add this role, called by 'addPractitioner'\n    function _addPractitioner(address account) internal {\n        Practitioners.add(account);\n        emit PractitionerAdded(account);\n    }\n\n    // Define an internal function '_removePractitioner' to remove this role, called by 'removePractitioner'\n    function _removePractitioner(address account) internal {\n        Practitioners.remove(account);\n        emit PractitionerRemoved(account);\n    }\n\n}\n\n\n\n\n",
  "sourcePath": "/Users/masarah/code/wdi/project/DApp-supply-chain-solution/contracts/accesscontrol/Practitioner.sol",
  "compiler": {
    "name": "solc",
    "version": "0.5.8+commit.23d335f2.Emscripten.clang"
  },
  "schemaVersion": "3.0.10",
  "updatedAt": "2019-08-08T16:30:39.437Z",
  "devdoc": {
    "methods": {}
  },
  "userdoc": {
    "methods": {}
  }
}