{
  "contractName": "SupplyChain",
  "abi": [
    {
      "constant": false,
      "inputs": [],
      "name": "renouncehospital",
      "outputs": [],
      "payable": false,
      "stateMutability": "nonpayable",
      "type": "function"
    },
    {
      "constant": false,
      "inputs": [
        {
          "name": "account",
          "type": "address"
        }
      ],
      "name": "addhospital",
      "outputs": [],
      "payable": false,
      "stateMutability": "nonpayable",
      "type": "function"
    },
    {
      "constant": true,
      "inputs": [],
      "name": "sku",
      "outputs": [
        {
          "name": "",
          "type": "uint256"
        }
      ],
      "payable": false,
      "stateMutability": "view",
      "type": "function"
    },
    {
      "constant": true,
      "inputs": [
        {
          "name": "account",
          "type": "address"
        }
      ],
      "name": "ishospital",
      "outputs": [
        {
          "name": "",
          "type": "bool"
        }
      ],
      "payable": false,
      "stateMutability": "view",
      "type": "function"
    },
    {
      "constant": false,
      "inputs": [
        {
          "name": "account",
          "type": "address"
        }
      ],
      "name": "addPractitioner",
      "outputs": [],
      "payable": false,
      "stateMutability": "nonpayable",
      "type": "function"
    },
    {
      "constant": false,
      "inputs": [
        {
          "name": "account",
          "type": "address"
        }
      ],
      "name": "addPatient",
      "outputs": [],
      "payable": false,
      "stateMutability": "nonpayable",
      "type": "function"
    },
    {
      "constant": false,
      "inputs": [],
      "name": "renounceOwnership",
      "outputs": [],
      "payable": false,
      "stateMutability": "nonpayable",
      "type": "function"
    },
    {
      "constant": false,
      "inputs": [],
      "name": "renouncePatient",
      "outputs": [],
      "payable": false,
      "stateMutability": "nonpayable",
      "type": "function"
    },
    {
      "constant": true,
      "inputs": [
        {
          "name": "account",
          "type": "address"
        }
      ],
      "name": "isPractitioner",
      "outputs": [
        {
          "name": "",
          "type": "bool"
        }
      ],
      "payable": false,
      "stateMutability": "view",
      "type": "function"
    },
    {
      "constant": true,
      "inputs": [],
      "name": "owner",
      "outputs": [
        {
          "name": "",
          "type": "address"
        }
      ],
      "payable": false,
      "stateMutability": "view",
      "type": "function"
    },
    {
      "constant": true,
      "inputs": [],
      "name": "isOwner",
      "outputs": [
        {
          "name": "",
          "type": "bool"
        }
      ],
      "payable": false,
      "stateMutability": "view",
      "type": "function"
    },
    {
      "constant": true,
      "inputs": [
        {
          "name": "account",
          "type": "address"
        }
      ],
      "name": "isPatient",
      "outputs": [
        {
          "name": "",
          "type": "bool"
        }
      ],
      "payable": false,
      "stateMutability": "view",
      "type": "function"
    },
    {
      "constant": false,
      "inputs": [],
      "name": "renouncePractitioner",
      "outputs": [],
      "payable": false,
      "stateMutability": "nonpayable",
      "type": "function"
    },
    {
      "constant": false,
      "inputs": [
        {
          "name": "newOwner",
          "type": "address"
        }
      ],
      "name": "transferOwnership",
      "outputs": [],
      "payable": false,
      "stateMutability": "nonpayable",
      "type": "function"
    },
    {
      "inputs": [],
      "payable": true,
      "stateMutability": "payable",
      "type": "constructor"
    },
    {
      "anonymous": false,
      "inputs": [
        {
          "indexed": false,
          "name": "sku",
          "type": "uint256"
        }
      ],
      "name": "Approvedconsent",
      "type": "event"
    },
    {
      "anonymous": false,
      "inputs": [
        {
          "indexed": false,
          "name": "sku",
          "type": "uint256"
        }
      ],
      "name": "Requestedconsent",
      "type": "event"
    },
    {
      "anonymous": false,
      "inputs": [
        {
          "indexed": false,
          "name": "sku",
          "type": "uint256"
        }
      ],
      "name": "Signedconsent",
      "type": "event"
    },
    {
      "anonymous": false,
      "inputs": [
        {
          "indexed": false,
          "name": "sku",
          "type": "uint256"
        }
      ],
      "name": "PtSignedconsent",
      "type": "event"
    },
    {
      "anonymous": false,
      "inputs": [
        {
          "indexed": false,
          "name": "sku",
          "type": "uint256"
        },
        {
          "indexed": false,
          "name": "ipfsHash",
          "type": "string"
        }
      ],
      "name": "Uploadedconsent",
      "type": "event"
    },
    {
      "anonymous": false,
      "inputs": [
        {
          "indexed": true,
          "name": "oldOwner",
          "type": "address"
        },
        {
          "indexed": true,
          "name": "newOwner",
          "type": "address"
        }
      ],
      "name": "TransferOwnership",
      "type": "event"
    },
    {
      "anonymous": false,
      "inputs": [
        {
          "indexed": true,
          "name": "account",
          "type": "address"
        }
      ],
      "name": "PatientAdded",
      "type": "event"
    },
    {
      "anonymous": false,
      "inputs": [
        {
          "indexed": true,
          "name": "account",
          "type": "address"
        }
      ],
      "name": "PatientRemoved",
      "type": "event"
    },
    {
      "anonymous": false,
      "inputs": [
        {
          "indexed": true,
          "name": "account",
          "type": "address"
        }
      ],
      "name": "hospitalAdded",
      "type": "event"
    },
    {
      "anonymous": false,
      "inputs": [
        {
          "indexed": true,
          "name": "account",
          "type": "address"
        }
      ],
      "name": "hospitalRemoved",
      "type": "event"
    },
    {
      "anonymous": false,
      "inputs": [
        {
          "indexed": true,
          "name": "account",
          "type": "address"
        }
      ],
      "name": "PractitionerAdded",
      "type": "event"
    },
    {
      "anonymous": false,
      "inputs": [
        {
          "indexed": true,
          "name": "account",
          "type": "address"
        }
      ],
      "name": "PractitionerRemoved",
      "type": "event"
    },
    {
      "constant": false,
      "inputs": [],
      "name": "kill",
      "outputs": [],
      "payable": false,
      "stateMutability": "nonpayable",
      "type": "function"
    },
    {
      "constant": false,
      "inputs": [
        {
          "name": "_sku",
          "type": "uint256"
        },
        {
          "name": "_name",
          "type": "string"
        },
        {
          "name": "_hospital",
          "type": "address"
        },
        {
          "name": "_hospitalName",
          "type": "string"
        },
        {
          "name": "_consentInfo",
          "type": "string"
        },
        {
          "name": "_ICD10",
          "type": "string"
        },
        {
          "name": "_symptom",
          "type": "uint256"
        }
      ],
      "name": "hospitalApproved",
      "outputs": [],
      "payable": true,
      "stateMutability": "payable",
      "type": "function"
    },
    {
      "constant": false,
      "inputs": [
        {
          "name": "_sku",
          "type": "uint256"
        },
        {
          "name": "_practitioner",
          "type": "address"
        },
        {
          "name": "_practitionerName",
          "type": "string"
        },
        {
          "name": "_patientCondtion",
          "type": "string"
        }
      ],
      "name": "reqPractitioner",
      "outputs": [],
      "payable": true,
      "stateMutability": "payable",
      "type": "function"
    },
    {
      "constant": false,
      "inputs": [
        {
          "name": "_sku",
          "type": "uint256"
        }
      ],
      "name": "prSigned",
      "outputs": [],
      "payable": false,
      "stateMutability": "nonpayable",
      "type": "function"
    },
    {
      "constant": false,
      "inputs": [
        {
          "name": "_sku",
          "type": "uint256"
        },
        {
          "name": "_patient",
          "type": "address"
        },
        {
          "name": "_patientName",
          "type": "string"
        },
        {
          "name": "_patientID",
          "type": "uint256"
        }
      ],
      "name": "ptSignConsent",
      "outputs": [],
      "payable": false,
      "stateMutability": "nonpayable",
      "type": "function"
    },
    {
      "constant": true,
      "inputs": [
        {
          "name": "_sku",
          "type": "uint256"
        }
      ],
      "name": "fetchPTconsentBufferOne",
      "outputs": [
        {
          "name": "consentID",
          "type": "uint256"
        },
        {
          "name": "name",
          "type": "string"
        },
        {
          "name": "currentOwner",
          "type": "address"
        },
        {
          "name": "hospital",
          "type": "address"
        },
        {
          "name": "hospitalName",
          "type": "string"
        },
        {
          "name": "symptom",
          "type": "uint256"
        },
        {
          "name": "consentInfo",
          "type": "string"
        },
        {
          "name": "ICD10",
          "type": "string"
        }
      ],
      "payable": false,
      "stateMutability": "view",
      "type": "function"
    },
    {
      "constant": true,
      "inputs": [
        {
          "name": "_sku",
          "type": "uint256"
        }
      ],
      "name": "fetchPTconsentBufferTwo",
      "outputs": [
        {
          "name": "consentSKU",
          "type": "uint256"
        },
        {
          "name": "PTconsentState",
          "type": "uint8"
        },
        {
          "name": "practitioner",
          "type": "address"
        },
        {
          "name": "practitionerName",
          "type": "string"
        },
        {
          "name": "patient",
          "type": "address"
        },
        {
          "name": "patientName",
          "type": "string"
        },
        {
          "name": "patientID",
          "type": "uint256"
        },
        {
          "name": "patientCondtion",
          "type": "string"
        }
      ],
      "payable": false,
      "stateMutability": "view",
      "type": "function"
    }
  ],
  "bytecode": "0x60806040526200001533620000c960201b60201c565b62000026336200011b60201b60201c565b62000037336200016d60201b60201c565b600380546001600160a01b0319163317908190556040516001600160a01b0391909116906000907f5c486528ec3e3f0ea91181cff8116f02bfa350e03b8b6f12e00765adbb5af85c908290a36001600481905560005260056020527f1471eb6eb2c5e789fc3de43f8ce62938c7d1836ec861730447e2ada8fd81017d80546001600160a01b031916331790556200024b565b620000e4816000620001bf60201b62001af51790919060201c565b6040516001600160a01b038216907ff109775663ddef54e908af2fbdac130a0fb0e1c0f8a8154d1774a4fb9d2a963f90600090a250565b62000136816001620001bf60201b62001af51790919060201c565b6040516001600160a01b038216907ffe59a3ca7881ec6a1770b939089e1bbb0562f8373c5603f2c4c72aa8ba2d9ecb90600090a250565b62000188816002620001bf60201b62001af51790919060201c565b6040516001600160a01b038216907fa58cff07db0adda3ab7a40bd2f18ab57210bf38391a52ffd2e8eee6b8bdec71a90600090a250565b6001600160a01b038116620001d357600080fd5b620001e582826200021560201b60201c565b15620001f057600080fd5b6001600160a01b0316600090815260209190915260409020805460ff19166001179055565b60006001600160a01b0382166200022b57600080fd5b506001600160a01b03166000908152602091909152604090205460ff1690565b611c52806200025b6000396000f3fe60806040526004361061012a5760003560e01c8063715018a6116100ab5780638f32d59b1161006f5780638f32d59b146108cd5780638f9c79ed146108e2578063ac54827514610915578063b932d2181461092a578063e42bbfad14610b77578063f2fde38b14610ba15761012a565b8063715018a61461077757806381a07c361461078c5780638990d535146107a157806389f5ffc7146108695780638da5cb5b1461089c5761012a565b806341c0e1b5116100f257806341c0e1b51461068e5780634462f40c146106a35780634a22d7dc146106ca57806360f776c5146107115780636d263ceb146107445761012a565b806305d685c11461012f57806328b7b59e146101465780632d4a0daa14610309578063345cd6801461033c5780633880a52f1461047a575b600080fd5b34801561013b57600080fd5b50610144610bd4565b005b34801561015257600080fd5b506101706004803603602081101561016957600080fd5b5035610bdf565b6040518089815260200188600381111561018657fe5b60ff168152602001876001600160a01b03166001600160a01b0316815260200180602001866001600160a01b03166001600160a01b031681526020018060200185815260200180602001848103845289818151815260200191508051906020019080838360005b838110156102055781810151838201526020016101ed565b50505050905090810190601f1680156102325780820380516001836020036101000a031916815260200191505b50848103835287518152875160209182019189019080838360005b8381101561026557818101518382015260200161024d565b50505050905090810190601f1680156102925780820380516001836020036101000a031916815260200191505b50848103825285518152855160209182019187019080838360005b838110156102c55781810151838201526020016102ad565b50505050905090810190601f1680156102f25780820380516001836020036101000a031916815260200191505b509b50505050505050505050505060405180910390f35b34801561031557600080fd5b506101446004803603602081101561032c57600080fd5b50356001600160a01b0316610e0c565b6101446004803603608081101561035257600080fd5b8135916001600160a01b0360208201351691810190606081016040820135600160201b81111561038157600080fd5b82018360208201111561039357600080fd5b803590602001918460018302840111600160201b831117156103b457600080fd5b91908080601f0160208091040260200160405190810160405280939291908181526020018383808284376000920191909152509295949360208101935035915050600160201b81111561040657600080fd5b82018360208201111561041857600080fd5b803590602001918460018302840111600160201b8311171561043957600080fd5b91908080601f016020809104026020016040519081016040528093929190818152602001838380828437600092019190915250929550610e2a945050505050565b34801561048657600080fd5b506104a46004803603602081101561049d57600080fd5b503561103f565b6040518089815260200180602001886001600160a01b03166001600160a01b03168152602001876001600160a01b03166001600160a01b0316815260200180602001868152602001806020018060200185810385528c818151815260200191508051906020019080838360005b83811015610529578181015183820152602001610511565b50505050905090810190601f1680156105565780820380516001836020036101000a031916815260200191505b5085810384528951815289516020918201918b019080838360005b83811015610589578181015183820152602001610571565b50505050905090810190601f1680156105b65780820380516001836020036101000a031916815260200191505b50858103835287518152875160209182019189019080838360005b838110156105e95781810151838201526020016105d1565b50505050905090810190601f1680156106165780820380516001836020036101000a031916815260200191505b50858103825286518152865160209182019188019080838360005b83811015610649578181015183820152602001610631565b50505050905090810190601f1680156106765780820380516001836020036101000a031916815260200191505b509c5050505050505050505050505060405180910390f35b34801561069a57600080fd5b506101446112bc565b3480156106af57600080fd5b506106b8611306565b60408051918252519081900360200190f35b3480156106d657600080fd5b506106fd600480360360208110156106ed57600080fd5b50356001600160a01b031661130c565b604080519115158252519081900360200190f35b34801561071d57600080fd5b506101446004803603602081101561073457600080fd5b50356001600160a01b0316611325565b34801561075057600080fd5b506101446004803603602081101561076757600080fd5b50356001600160a01b0316611340565b34801561078357600080fd5b5061014461135b565b34801561079857600080fd5b506101446113b6565b3480156107ad57600080fd5b50610144600480360360808110156107c457600080fd5b8135916001600160a01b0360208201351691810190606081016040820135600160201b8111156107f357600080fd5b82018360208201111561080557600080fd5b803590602001918460018302840111600160201b8311171561082657600080fd5b91908080601f01602080910402602001604051908101604052809392919081815260200183838082843760009201919091525092955050913592506113bf915050565b34801561087557600080fd5b506106fd6004803603602081101561088c57600080fd5b50356001600160a01b03166114fd565b3480156108a857600080fd5b506108b161150f565b604080516001600160a01b039092168252519081900360200190f35b3480156108d957600080fd5b506106fd61151f565b3480156108ee57600080fd5b506106fd6004803603602081101561090557600080fd5b50356001600160a01b0316611530565b34801561092157600080fd5b50610144611543565b610144600480360360e081101561094057600080fd5b81359190810190604081016020820135600160201b81111561096157600080fd5b82018360208201111561097357600080fd5b803590602001918460018302840111600160201b8311171561099457600080fd5b91908080601f01602080910402602001604051908101604052809392919081815260200183838082843760009201919091525092956001600160a01b03853516959094909350604081019250602001359050600160201b8111156109f757600080fd5b820183602082011115610a0957600080fd5b803590602001918460018302840111600160201b83111715610a2a57600080fd5b91908080601f0160208091040260200160405190810160405280939291908181526020018383808284376000920191909152509295949360208101935035915050600160201b811115610a7c57600080fd5b820183602082011115610a8e57600080fd5b803590602001918460018302840111600160201b83111715610aaf57600080fd5b91908080601f0160208091040260200160405190810160405280939291908181526020018383808284376000920191909152509295949360208101935035915050600160201b811115610b0157600080fd5b820183602082011115610b1357600080fd5b803590602001918460018302840111600160201b83111715610b3457600080fd5b91908080601f016020809104026020016040519081016040528093929190818152602001838380828437600092019190915250929550509135925061154c915050565b348015610b8357600080fd5b5061014460048036036020811015610b9a57600080fd5b503561174a565b348015610bad57600080fd5b5061014460048036036020811015610bc457600080fd5b50356001600160a01b031661183f565b610bdd33611859565b565b6000818152600560209081526040808320805460078201546009830154600a9093018054855160026101006001841615026000190190921691909104601f8101889004880282018801909652858152929660ff909216956001600160a01b039094169460609492938593859385939091830182828015610ca05780601f10610c7557610100808354040283529160200191610ca0565b820191906000526020600020905b815481529060010190602001808311610c8357829003601f168201915b50505060008c815260056020908152604091829020600b810154600c9091018054845160026101006001841615026000190190921691909104601f8101859004850282018501909552848152969b506001600160a01b0390911699509350909150830182828015610d525780601f10610d2757610100808354040283529160200191610d52565b820191906000526020600020905b815481529060010190602001808311610d3557829003601f168201915b50505060008c815260056020908152604091829020600d810154600e9091018054845160026001831615610100026000190190921691909104601f81018590048502820185019095528481529699509097509350909150830182828015610dfa5780601f10610dcf57610100808354040283529160200191610dfa565b820191906000526020600020905b815481529060010190602001808311610ddd57829003601f168201915b50505050509050919395975091939597565b610e153361130c565b610e1e57600080fd5b610e27816118a1565b50565b836000808281526005602052604090206007015460ff166003811115610e4c57fe5b14610e8b57604051600160e51b62461bcd028152600401808060200182810382526024815260200180611bda6024913960400191505060405180910390fd5b6000858152600560205260409020600201546001600160a01b0316338114610eb257600080fd5b60008681526005602052604090206008015434811115610ed157600080fd5b60008781526005602090815260409091206002810180546001600160a01b038a166001600160a01b03199182168117909255600983018054909116909117905586518992610f2692600a019190890190611b41565b50600088815260056020908152604090912060078101805460ff191660011790558651610f5b92600e90920191880190611b41565b50600088815260056020526040808220600381015460089091015491516001600160a01b039091169282156108fc02929190818181858888f19350505050158015610faa573d6000803e3d6000fd5b506040805189815290517f96c025437d877685723a0116da7e71e35c724aa76b266f1e63b7153fc1c55f899181900360200190a160008181526005602052604080822060088101546009909101549151909234849003926001600160a01b03169183156108fc0291849190818181858888f19350505050158015611032573d6000803e3d6000fd5b5050505050505050505050565b60008181526005602090815260408083208054600191820180548451600294821615610100026000190190911693909304601f8101869004860284018601909452838352909460609490938493869385938593849392918301828280156110e75780601f106110bc576101008083540402835291602001916110e7565b820191906000526020600020905b8154815290600101906020018083116110ca57829003601f168201915b50505060008c81526005602090815260409182902060028082015460038301546004909301805486516101006001831615026000190190911693909304601f8101869004860284018601909652858352979e506001600160a01b039081169d509091169a509493509091508301828280156111a35780601f10611178576101008083540402835291602001916111a3565b820191906000526020600020905b81548152906001019060200180831161118657829003601f168201915b50505060008c815260056020818152604092839020600881015492018054845160026001831615610100026000190190921691909104601f8101849004840282018401909552848152969a509198509093509091508301828280156112495780601f1061121e57610100808354040283529160200191611249565b820191906000526020600020905b81548152906001019060200180831161122c57829003601f168201915b50505060008c8152600560209081526040918290206006018054835160026001831615610100026000190190921691909104601f81018490048402820184019094528381529597509350909150830182828015610dfa5780601f10610dcf57610100808354040283529160200191610dfa565b6112c461151f565b6112cd57600080fd5b60006112d761150f565b90506112e161150f565b6001600160a01b0316336001600160a01b03161415610e2757806001600160a01b0316ff5b60045481565b600061131f60018363ffffffff6118e916565b92915050565b61132e336114fd565b61133757600080fd5b610e278161191e565b61134933611530565b61135257600080fd5b610e2781611966565b61136361151f565b61136c57600080fd5b6003546040516000916001600160a01b0316907f5c486528ec3e3f0ea91181cff8116f02bfa350e03b8b6f12e00765adbb5af85c908390a3600380546001600160a01b0319169055565b610bdd336119ae565b83600260008281526005602052604090206007015460ff1660038111156113e257fe5b1461142157604051600160e51b62461bcd028152600401808060200182810382526029815260200180611bfe6029913960400191505060405180910390fd5b6000858152600560205260409020600901546001600160a01b031633811461144857600080fd5b60008681526005602090815260409091206002810180546001600160a01b0389166001600160a01b0319918216811790925560078301805460ff19166003179055600b83018054909116909117905585516114ab92600c90920191870190611b41565b50600086815260056020908152604091829020600d01859055815188815291517f498c152ae52a64c49efb34e9ae33ccb6a0f11bb9934f6e558204f8868b6aa7b29281900390910190a1505050505050565b600061131f818363ffffffff6118e916565b6003546001600160a01b03165b90565b6003546001600160a01b0316331490565b600061131f60028363ffffffff6118e916565b610bdd336119f6565b6115553361130c565b61155e57600080fd5b6000878152600560209081526040909120888155875161158692600190920191890190611b41565b5060008781526005602090815260409091206002810180546001600160a01b0389166001600160a01b03199182168117909255600383018054909116909117905585516115db92600490920191870190611b41565b506000878152600560208181526040909220855161160193919092019190860190611b41565b506000878152600560209081526040909120835161162792600690920191850190611b41565b50600087815260056020818152604080842060078101805460ff19169055600881018690556009810180546001600160a01b0319169055815180830190925260048252600160e21b631b9d5b1b02828401908152948c9052929091525161169492600a9092019190611b41565b506000878152600560208181526040808420600b810180546001600160a01b0319169055815180830190925260048252600160e21b631b9d5b1b02828401908152948c905292909152516116ee92600c9092019190611b41565b506000878152600560209081526040808320600d0192909255600480546001019055815189815291517f49b0e50c8803152e56732b3914aa1b78c8d870f4a1283eaf2bbda21e6b38e5599281900390910190a150505050505050565b80600160008281526005602052604090206007015460ff16600381111561176d57fe5b146117c25760408051600160e51b62461bcd02815260206004820152601c60248201527f436f6e73656e74206973206e6f74207965742052657175657374656400000000604482015290519081900360640190fd5b6000828152600560205260409020600901546001600160a01b03163381146117e957600080fd5b600083815260056020908152604091829020600701805460ff19166002179055815185815291517fffb4a78479b4c0ae7d925d5610c8649ee6087af420061665bf9314db7dd751a19281900390910190a1505050565b61184761151f565b61185057600080fd5b610e2781611a3e565b61186a60018263ffffffff611aad16565b6040516001600160a01b038216907fd6057c66ea7075caf4b3aaad763f1561978510acd58b9df4fee5ca0ff67eef2290600090a250565b6118b260018263ffffffff611af516565b6040516001600160a01b038216907ffe59a3ca7881ec6a1770b939089e1bbb0562f8373c5603f2c4c72aa8ba2d9ecb90600090a250565b60006001600160a01b0382166118fe57600080fd5b506001600160a01b03166000908152602091909152604090205460ff1690565b61192f60008263ffffffff611af516565b6040516001600160a01b038216907ff109775663ddef54e908af2fbdac130a0fb0e1c0f8a8154d1774a4fb9d2a963f90600090a250565b61197760028263ffffffff611af516565b6040516001600160a01b038216907fa58cff07db0adda3ab7a40bd2f18ab57210bf38391a52ffd2e8eee6b8bdec71a90600090a250565b6119bf60028263ffffffff611aad16565b6040516001600160a01b038216907f053a4badf166f01c4b02f6bcb71d2d67734470d0866282e291e73001aa25c76990600090a250565b611a0760008263ffffffff611aad16565b6040516001600160a01b038216907f3e70a8e40d2145f0aec6367780c730e7efb3d857d593222df6dcea20a722446a90600090a250565b6001600160a01b038116611a5157600080fd5b6003546040516001600160a01b038084169216907f5c486528ec3e3f0ea91181cff8116f02bfa350e03b8b6f12e00765adbb5af85c90600090a3600380546001600160a01b0319166001600160a01b0392909216919091179055565b6001600160a01b038116611ac057600080fd5b611aca82826118e9565b611ad357600080fd5b6001600160a01b0316600090815260209190915260409020805460ff19169055565b6001600160a01b038116611b0857600080fd5b611b1282826118e9565b15611b1c57600080fd5b6001600160a01b0316600090815260209190915260409020805460ff19166001179055565b828054600181600116156101000203166002900490600052602060002090601f016020900481019282601f10611b8257805160ff1916838001178555611baf565b82800160010185558215611baf579182015b82811115611baf578251825591602001919060010190611b94565b50611bbb929150611bbf565b5090565b61151c91905b80821115611bbb5760008155600101611bc556fe486f73706974616c20436f6e73656e74206973206e6f742079657420417070726f766564436f6e73656e74206973206e6f7420796574205369676e65642062792050726163746974696f6e6572a165627a7a72305820f37e8f5774448ae2799df3afbe666e3327b0776aab3af357c7405783b5cf02440029",
  "source": "pragma solidity ^ 0.5.0;\nimport \"../accesscontrol/Practitioner.sol\";\nimport \"../accesscontrol/Hospital.sol\";\nimport \"../accesscontrol/Patient.sol\";\nimport \"../core/Ownable.sol\";\n\ncontract SupplyChain is\n    Practitioner,\n    hospital,\n    Patient,\n    Ownable\n{\n\n    uint public sku;\n    mapping(uint => PTconsent) ptconsents;\n    mapping(uint => string[]) ptconsentsHisrtory;\n\n    enum State {\n        Approved,   //0\n        Requested,  //1\n        Signed,     //2\n        PtSigned    //3\n    }\n\n    State constant defaultState = State.Approved;\n\n    struct PTconsent {\n        uint    sku;\n        string  name;\n        address currentOwner;\n        address payable hospital;\n        string hospitalName;\n        string  consentInfo;\n        string  ICD10;\n        State   PTconsentState;\n        uint    symptom;\n        address payable practitioner;\n        string practitionerName;\n        address patient;       \n        string patientName;\n        uint patientID;\n        string patientCondtion;\n        // string ipfsHash;\n    }\n\n    // Define events for PT consent\n    event Approvedconsent(uint sku);\n    event Requestedconsent(uint sku);\n    event Signedconsent(uint sku);\n    event PtSignedconsent(uint sku);\n    event Uploadedconsent(uint sku, string ipfsHash);\n\n\n    // // Define a modifer that checks to see if msg.sender == owner of the contract\n    // modifier onlyOwner() {\n    //     require(msg.sender != address(0));\n    //     require(msg.sender == ptconsents[sku].currentOwner);\n    //     _;\n    // }\n\n    // Define a modifer that verifies the Caller\n    modifier verifyCaller(address _address) {\n        require(msg.sender == _address);\n        _;\n    }\n\n    // Define a modifier that checks if the patient symptom  is matched for procerdure \n\n    modifier matched(uint _symptom) {\n        require(msg.value >= _symptom);\n        _;\n    }\n\n\n  // Define a modifier that checks the price and refunds the remaining balance\n  modifier checkMatch(uint _sku) {\n    _;\n    uint _symptom = ptconsents[_sku].symptom;\n    uint misMatch = msg.value - _symptom;\n    ptconsents[_sku].practitioner.transfer(misMatch);\n  }\n\n// Define a modifier that checks if Hospital has approved from MOH and SFDA , \nmodifier Approved(uint _sku) {\n    require(ptconsents[_sku].PTconsentState == State.Approved,\n        \"Hospital Consent is not yet Approved\");\n    _;\n}\n\n// Define a modifier that checks if Practitioner has Requested consent for PT , \nmodifier Requested(uint _sku) {\n    require(ptconsents[_sku].PTconsentState == State.Requested,\n        \"Consent is not yet Requested\");\n    _;\n}\n// Define a modifier that checks if Practitioner has signed consent , \nmodifier Signed(uint _sku) {\n    require(ptconsents[_sku].PTconsentState == State.Signed,\n        \"Consent is not yet Signed by Practitioner\");\n    _;\n}\n// Define a modifier that checks if PT has signed consent , \nmodifier PtSigned(uint _sku) {\n    require(ptconsents[_sku].PTconsentState == State.PtSigned,\n        \"Concsent is not yet Signed by Patient\");\n    _;\n}\n\nconstructor() public payable {\n    sku = 1;\n    ptconsents[sku].currentOwner = msg.sender;\n\n}\n\n  // Define a function 'kill' if required\n  function kill() public \n  onlyOwner\n  {\n   address payable owne = address(uint160(owner()));\n        if (msg.sender == owner()) {\n            selfdestruct(owne);\n  }\n\n  }\nfunction hospitalApproved(\n    uint _sku,\n    string memory _name,\n    address payable  _hospital,\n    string memory _hospitalName,\n    string memory _consentInfo,\n    string memory _ICD10,\n    uint _symptom\n\n)\npublic\npayable\nonlyhospital\n{\n\n      // Add the new ptconsents as part of hospital\n    ptconsents[_sku].sku  =  _sku;\n    ptconsents[_sku].name  =  _name;\n    ptconsents[_sku].currentOwner =  _hospital;\n    ptconsents[_sku].hospital  =  _hospital;\n    ptconsents[_sku].hospitalName  = _hospitalName;\n    ptconsents[_sku].consentInfo  = _consentInfo;\n    ptconsents[_sku].ICD10 = _ICD10;\n    ptconsents[_sku].PTconsentState  = State.Approved;\n    ptconsents[_sku].symptom  = _symptom;\n    ptconsents[_sku].practitioner  =  address(0);\n    ptconsents[_sku].practitionerName = \"null\";\n    ptconsents[_sku].patient  =  address(0);\n    ptconsents[_sku].patientName  = \"null\";\n    ptconsents[_sku].patientID = 0;\n\n    // ptconsents[_sku].symptom = msg.value;\n      // Increment sku\n      sku = sku + 1;\n// Emit the appropriate event\n    emit Approvedconsent(_sku);\n}\n\n\nfunction reqPractitioner(\n    uint _sku,\n    address payable  _practitioner,\n    string memory _practitionerName,  \n    string memory _patientCondtion\n\n)\npublic \npayable\n\nApproved(_sku)\nverifyCaller(ptconsents[_sku].currentOwner)\n// onlyPractitioner\nmatched(ptconsents[_sku].symptom)\ncheckMatch(_sku)\n{\n\n      // Add the new ptconsents as part of hospital\n    ptconsents[_sku].currentOwner  =  _practitioner;\n    ptconsents[_sku].practitioner  =  _practitioner;\n    ptconsents[_sku].practitionerName  = _practitionerName;\n    ptconsents[_sku].PTconsentState  = State.Requested;\n    ptconsents[_sku].patientCondtion = _patientCondtion;\n\n    ptconsents[_sku].hospital.transfer(ptconsents[_sku].symptom);\n\n\n// Emit the appropriate event\n    emit Requestedconsent(_sku);\n}\n\nfunction prSigned(\n    uint _sku\n)\npublic \n\nRequested(_sku)\nverifyCaller(ptconsents[_sku].practitioner)\n// onlyPractitioner\n{\n\n      // Add the new ptconsents as part of hospital\n\n    ptconsents[_sku].PTconsentState  = State.Signed;\n\n\n// Emit the appropriate event\n    emit Signedconsent(_sku);\n}\n\n\n\nfunction ptSignConsent(\n    uint _sku,\naddress payable  _patient,\n    string memory _patientName,\n    uint  _patientID\n)\npublic \nSigned(_sku)\nverifyCaller(ptconsents[_sku].practitioner)\n// onlyPatient\n{\n\n      // Add the new ptconsents as part of hospital\n    ptconsents[_sku].currentOwner  =  _patient;\n    ptconsents[_sku].PTconsentState  = State.PtSigned;\n    ptconsents[_sku].patient  =  _patient;\n    ptconsents[_sku].patientName  = _patientName;\n    ptconsents[_sku].patientID = _patientID;\n  \n\n// Emit the appropriate event\n    emit PtSignedconsent(_sku);\n}\n\n\n// Define a function 'fetchItemBufferOne' that fetches the data\n  function fetchPTconsentBufferOne(uint _sku) public view returns \n  (\n  uint consentID,\n  string  memory name,\n  address currentOwner,\n  address hospital,\n  string  memory hospitalName,\n   uint    symptom,\n  string  memory consentInfo,\n  string  memory ICD10\n  ) \n  {\n  // Assign values to the 8 parameters\n  \n    \n\n  consentID =  ptconsents[_sku].sku;\n  name= ptconsents[_sku].name;\n  currentOwner    = ptconsents[_sku].currentOwner;\n  hospital   = ptconsents[_sku].hospital;\n  hospitalName= ptconsents[_sku].hospitalName;\n  symptom = ptconsents[_sku].symptom;\n  consentInfo = ptconsents[_sku].consentInfo;\n  ICD10= ptconsents[_sku].ICD10;\n  }\n\n\n  // Define a function 'fetchItemBufferTwo' that fetches the data\n  function fetchPTconsentBufferTwo(uint _sku) public view returns \n  (\n     uint    consentSKU,\n     State    PTconsentState,\n     address practitioner,\n     string memory practitionerName,\n     address patient,\n     string memory patientName,\n     uint    patientID,\n     string  memory patientCondtion\n\n  ) \n  {\n    // Assign values to the 9 parameters  \n  consentSKU =  ptconsents[_sku].sku;\n  PTconsentState =  ptconsents[_sku].PTconsentState;\n  practitioner = ptconsents[_sku].practitioner;\n  practitionerName  = ptconsents[_sku].practitionerName;\n  patient  = ptconsents[_sku].patient;\n  patientName  = ptconsents[_sku].patientName;\n  patientID  = ptconsents[_sku].patientID;\n  patientCondtion = ptconsents[_sku].patientCondtion;\n  }\n\n}\n\n\n\n\n\n\n//  \n\n//concent ID\n//Hospital \n// Doctor assign  address\n// Procedure \n// Origin Actor (e.g.  ID, Hospital Name, )\n///ACTORS\n//hospital ID , Hospital Name\n//Doctor ID , Doctor Name\n//Patient ID , Patient Name\n// Concent Data\n// \n\n        // retailPrice: 0,\n        // practitionerName: _practitionerName,\n        // patientName: _patientName,\n        // patientID: _patientID,\n        // patientCondtion: _patientCondtion,",
  "sourcePath": "/Users/masarah/code/wdi/project/DApp-supply-chain-solution/contracts/base/SupplyChain.sol",
  "compiler": {
    "name": "solc",
    "version": "0.5.8+commit.23d335f2.Emscripten.clang"
  },
  "schemaVersion": "3.0.10",
  "updatedAt": "2019-08-08T22:43:42.984Z",
  "devdoc": {
    "methods": {}
  },
  "userdoc": {
    "methods": {
      "isOwner()": {
        "notice": "Check if the calling address is the owner of the contract"
      },
      "owner()": {
        "notice": "Look up the address of the owner"
      },
      "renounceOwnership()": {
        "notice": "Define a function to renounce ownerhip"
      },
      "transferOwnership(address)": {
        "notice": "Define a public function to transfer ownership"
      }
    }
  }
}